:020000000C945E
:1000020044000C949E000C9400000C9400000C948C
:1000120000000C9400000C9400000C9400000C945E
:1000220000000C9400000C9400000C9400000C944E
:1000320000000C9400000C9400000C9400000C943E
:1000420000000C9400000C9400000C9400000C942E
:1000520000003132334134353642373839432A30A1
:1000620023440000506C6561736520456E746572AF
:10007200204B6579000080C0010005006400020089
:10008200600178000000F894EE27ECBBF1E0FBBFC2
:10009200EBBFE5BFF8E1F1BDE1BD8DE0A2E0BB271A
:1000A200ED938A95E9F780E094E0A0E6ED9301975D
:1000B200E9F7EAE7F0E085919591009761F0A59163
:1000C200B59105901590BF01F00105900D92019731
:1000D200E1F7FB01F0CFEFE5EDBFE4E0EEBFC0E6F4
:1000E200D1E00C947400E0E0E1BBEFEFE2BBE0E3AF
:1000F200E5BFE0E4EBBFA0E18AD053D0E0E0EA93B1
:10010200A0E042D0A6E6B0E06FD0A0EDB7E00E943A
:10011200970147D0AFE02BD00E947601789455200A
:1001220051F00E946B014E2E5524A42D46D0E3E4DB
:10013200E41509F436D0F3CFFFCFEA93E1E05E2E67
:10014200E9911895AA93E8B3EF70AE2FE881E07FAA
:10015200EA2BE8BB8DE08A95F1F7C29A8DE08A9589
:10016200F1F7C2988DE08A95F1F70C948701AA9372
:10017200A881E8DFE881E295E883A881E3DF85E8EA
:100182008A95F1F70C948701AA93E881F0E0E05A8E
:10019200FE4FE081A981AE0FEADF79806880229666
:1001A2000895A2E00E948901ACE0E1DFA1E00E9493
:1001B2008901E0E06E2E7E2E0895AA93A881AA30CE
:1001C20011F0791450F0E0E0EA936394A62DDCDF9D
:1001D200A881AA3011F40C9487017394C09AA88163
:1001E200C6DFC0980C948701BA93AA931A93E98147
:1001F200FA813196E983FA833197E4911E2FE03038
:1002020019F0A12FDADFF3CF188123960895AA936C
:10021200E7B3E06FE7BBBA9AB89AB99AC298C098A6
:10022200C1989880E881E058E0936201E881E05447
:10023200E0936301A4E1B0E00E9497010E948F0164
:100242000E948F010E948F01A0E27CDF88EC90E087
:100252000197F1F7A8E28BDFA4E089DFA5E887DF49
:10026200A6E085DF9EDF0C9487011A930A930E9411
:100272007601CB9B00E0CA9B01E0C99B02E0C89BD0
:1002820003E0EFE0EABBE0EFEBBB88EE93E001971F
:10029200F1F7CF9B10E0CE9B14E0CD9B18E0CC9BF6
:1002A2001CE023D0A02FBB27E12FF0E0EA0FFB1FB9
:1002B200EC5AFF4FE49109911991089516D0E9B3D0
:1002C200EF70EF30E1F3089510D0E9B3EF70EF3043
:1002D200E1F708951A93F2DFA4E10DD00E943601EE
:1002E2001E2FF2DFE12F19910895E0EFEABBEFE054
:1002F200EBBB00000895AA93A881A93C10F0E8EC9A
:10030200E883A881BB270E949701D8DF2196089530
:100312000E94B800A3E0B0E00C949701A0E30E9411
:10032200A30088EC90E00197F1F70895109639F058
:10033200A89580ED97E00197F1F71197C9F7089515
:00000001FF
