:020000000C945E
:100002003D000C9400000C9400000C9400000C9431
:1000120000000C9400000C9400000C9400000C945E
:1000220000000C9400000C9400000C9400000C944E
:1000320000000C9400000C9400000C9400000C943E
:1000420000000C9400000C9400000C9400000C942E
:1000520000003132334134353642373839432A30A1
:100062002344456E746572204B65793A000080C066
:100072000200600170000000F894EE27ECBBF1E092
:10008200FBBFEBBFE5BFF8E1F1BDE1BD8DE0A2E052
:10009200BB27ED938A95E9F780E094E0A0E6ED9323
:1000A2000197E9F7E2E7F0E085919591009761F019
:1000B200A591B59105901590BF01F00105900D92A3
:1000C2000197E1F7FB01F0CFEFE5EDBFE4E0EEBF12
:1000D200C0E6D1E00C946D00A0E181D00E945E01E7
:1000E200219747D0E0E0EA93A0E036D0A4E6B0E062
:1000F20063D0E0E0EA93A1E02FD0AFE020D00E94ED
:100102005301E883A88141D0A881A334C1F7219685
:10011200E7CFFFCFAA93E8B3EF70AE2FE881E07F7D
:10012200EA2BE8BB8DE08A95F1F7C29A8DE08A95B9
:10013200F1F7C2988DE08A95F1F70C946F01AA93BA
:10014200A881E8DFE881E295E883A881E3DF85E81A
:100152008A95F1F70C946F01AA93E881F0E0E05AD6
:10016200FE4FE081A981AE0FEADF598048802296D6
:100172000895A2E00E947101ACE0E1DFA1E00E94DB
:100182007101E0E04E2E5E2E0895AA93A881AA3056
:1001920011F0571450F0E0E0EA934394A42DDCDF11
:1001A200A881AA3011F40C946F015394C09AA881CB
:1001B200C6DFC0980C946F01BA93AA931A93E9818F
:1001C200FA813196E983FA833197E4911E2FE03068
:1001D20019F0A12FDADFF3CF188123960895AA939D
:1001E200E7B3E06FE7BBBA9AB89AB99AC298C098D7
:1001F200C1987880E881E058E0936201E881E05498
:10020200E0936301A4E1B0E00E947F010E947701C4
:100212000E9477010E947701A0E27CDF88EC90E0E7
:100222000197F1F7A8E28BDFA4E089DFA5E887DF79
:10023200A6E085DF9EDF0C946F011A930A930E9459
:100242005E01CB9B00E0CA9B0DEFC99B02E0C89BFD
:1002520003E0EFE0EABBE0EFEBBB88EE93E001974F
:10026200F1F7CF9B10E0CE9B14E0CD9B18E0CC9B26
:100272001CE023D0A02FBB27E12FF0E0EA0FFB1FE9
:10028200EC5AFF4FE49109911991089516D0E9B300
:10029200EF70EF30E1F3089510D0E9B3EF70EF3073
:1002A200E1F708951A93F2DFA4E10DD00E941E0136
:1002B2001E2FF2DFE12F19910895E0EFEABBEFE084
:1002C200EBBB00000895AA93A881A93C10F0E8ECCA
:1002D200E883A881BB270E947F01D8DF2196089579
:1002E2000E94A000A3E0B0E00C947F01A0E30E9472
:1002F2008B0088EC90E00197F1F70895109639F0A1
:10030200A89580ED97E00197F1F71197C9F7089545
:00000001FF
